{
  "_format": "hh-sol-artifact-1",
  "contractName": "CrowdFunding",
  "sourceName": "contracts/CrowdFunding.sol",
  "abi": [
    {
      "anonymous": false,
      "inputs": [
        {
          "indexed": true,
          "internalType": "uint256",
          "name": "campaignId",
          "type": "uint256"
        },
        {
          "indexed": true,
          "internalType": "address",
          "name": "owner",
          "type": "address"
        },
        {
          "indexed": false,
          "internalType": "string",
          "name": "title",
          "type": "string"
        },
        {
          "indexed": false,
          "internalType": "uint256",
          "name": "target",
          "type": "uint256"
        },
        {
          "indexed": false,
          "internalType": "uint256",
          "name": "deadline",
          "type": "uint256"
        }
      ],
      "name": "CampaignCreated",
      "type": "event"
    },
    {
      "anonymous": false,
      "inputs": [
        {
          "indexed": true,
          "internalType": "uint256",
          "name": "campaignId",
          "type": "uint256"
        },
        {
          "indexed": false,
          "internalType": "enum CrowdFunding.CampaignState",
          "name": "newState",
          "type": "uint8"
        }
      ],
      "name": "CampaignStateChanged",
      "type": "event"
    },
    {
      "anonymous": false,
      "inputs": [
        {
          "indexed": true,
          "internalType": "uint256",
          "name": "campaignId",
          "type": "uint256"
        },
        {
          "indexed": true,
          "internalType": "address",
          "name": "donator",
          "type": "address"
        },
        {
          "indexed": false,
          "internalType": "uint256",
          "name": "amount",
          "type": "uint256"
        }
      ],
      "name": "DonationReceived",
      "type": "event"
    },
    {
      "anonymous": false,
      "inputs": [
        {
          "indexed": true,
          "internalType": "uint256",
          "name": "campaignId",
          "type": "uint256"
        },
        {
          "indexed": true,
          "internalType": "address",
          "name": "owner",
          "type": "address"
        },
        {
          "indexed": false,
          "internalType": "uint256",
          "name": "amount",
          "type": "uint256"
        }
      ],
      "name": "FundsClaimed",
      "type": "event"
    },
    {
      "anonymous": false,
      "inputs": [
        {
          "indexed": true,
          "internalType": "uint256",
          "name": "campaignId",
          "type": "uint256"
        },
        {
          "indexed": true,
          "internalType": "address",
          "name": "donator",
          "type": "address"
        },
        {
          "indexed": false,
          "internalType": "uint256",
          "name": "amount",
          "type": "uint256"
        }
      ],
      "name": "RefundIssued",
      "type": "event"
    },
    {
      "inputs": [],
      "name": "MAX_CAMPAIGNS_PER_USER",
      "outputs": [
        {
          "internalType": "uint256",
          "name": "",
          "type": "uint256"
        }
      ],
      "stateMutability": "view",
      "type": "function"
    },
    {
      "inputs": [
        {
          "internalType": "address",
          "name": "",
          "type": "address"
        }
      ],
      "name": "activeCampaignsPerUser",
      "outputs": [
        {
          "internalType": "uint256",
          "name": "",
          "type": "uint256"
        }
      ],
      "stateMutability": "view",
      "type": "function"
    },
    {
      "inputs": [
        {
          "internalType": "uint256",
          "name": "",
          "type": "uint256"
        }
      ],
      "name": "campaigns",
      "outputs": [
        {
          "internalType": "address payable",
          "name": "owner",
          "type": "address"
        },
        {
          "internalType": "string",
          "name": "title",
          "type": "string"
        },
        {
          "internalType": "string",
          "name": "description",
          "type": "string"
        },
        {
          "internalType": "uint256",
          "name": "target",
          "type": "uint256"
        },
        {
          "internalType": "uint256",
          "name": "deadline",
          "type": "uint256"
        },
        {
          "internalType": "uint256",
          "name": "amountCollected",
          "type": "uint256"
        },
        {
          "internalType": "string",
          "name": "image",
          "type": "string"
        },
        {
          "internalType": "bool",
          "name": "claimed",
          "type": "bool"
        },
        {
          "internalType": "enum CrowdFunding.CampaignState",
          "name": "state",
          "type": "uint8"
        }
      ],
      "stateMutability": "view",
      "type": "function"
    },
    {
      "inputs": [
        {
          "internalType": "uint256",
          "name": "_id",
          "type": "uint256"
        }
      ],
      "name": "claimFunds",
      "outputs": [],
      "stateMutability": "nonpayable",
      "type": "function"
    },
    {
      "inputs": [
        {
          "internalType": "uint256",
          "name": "_id",
          "type": "uint256"
        }
      ],
      "name": "claimRefund",
      "outputs": [],
      "stateMutability": "nonpayable",
      "type": "function"
    },
    {
      "inputs": [
        {
          "internalType": "address",
          "name": "_owner",
          "type": "address"
        },
        {
          "internalType": "string",
          "name": "_title",
          "type": "string"
        },
        {
          "internalType": "string",
          "name": "_description",
          "type": "string"
        },
        {
          "internalType": "uint256",
          "name": "_target",
          "type": "uint256"
        },
        {
          "internalType": "uint256",
          "name": "_deadline",
          "type": "uint256"
        },
        {
          "internalType": "string",
          "name": "_image",
          "type": "string"
        }
      ],
      "name": "createCampaign",
      "outputs": [
        {
          "internalType": "uint256",
          "name": "",
          "type": "uint256"
        }
      ],
      "stateMutability": "nonpayable",
      "type": "function"
    },
    {
      "inputs": [
        {
          "internalType": "uint256",
          "name": "_id",
          "type": "uint256"
        }
      ],
      "name": "donateToCampaign",
      "outputs": [],
      "stateMutability": "payable",
      "type": "function"
    },
    {
      "inputs": [
        {
          "internalType": "uint256",
          "name": "",
          "type": "uint256"
        },
        {
          "internalType": "address",
          "name": "",
          "type": "address"
        }
      ],
      "name": "fundsByDonator",
      "outputs": [
        {
          "internalType": "uint256",
          "name": "",
          "type": "uint256"
        }
      ],
      "stateMutability": "view",
      "type": "function"
    },
    {
      "inputs": [
        {
          "internalType": "address",
          "name": "_user",
          "type": "address"
        }
      ],
      "name": "getActiveCampaignsCount",
      "outputs": [
        {
          "internalType": "uint256",
          "name": "",
          "type": "uint256"
        }
      ],
      "stateMutability": "view",
      "type": "function"
    },
    {
      "inputs": [
        {
          "internalType": "uint256",
          "name": "_id",
          "type": "uint256"
        }
      ],
      "name": "getCampaign",
      "outputs": [
        {
          "components": [
            {
              "internalType": "address payable",
              "name": "owner",
              "type": "address"
            },
            {
              "internalType": "string",
              "name": "title",
              "type": "string"
            },
            {
              "internalType": "string",
              "name": "description",
              "type": "string"
            },
            {
              "internalType": "uint256",
              "name": "target",
              "type": "uint256"
            },
            {
              "internalType": "uint256",
              "name": "deadline",
              "type": "uint256"
            },
            {
              "internalType": "uint256",
              "name": "amountCollected",
              "type": "uint256"
            },
            {
              "internalType": "string",
              "name": "image",
              "type": "string"
            },
            {
              "internalType": "address[]",
              "name": "donators",
              "type": "address[]"
            },
            {
              "internalType": "uint256[]",
              "name": "donations",
              "type": "uint256[]"
            },
            {
              "internalType": "bool",
              "name": "claimed",
              "type": "bool"
            },
            {
              "internalType": "enum CrowdFunding.CampaignState",
              "name": "state",
              "type": "uint8"
            }
          ],
          "internalType": "struct CrowdFunding.Campaign",
          "name": "",
          "type": "tuple"
        }
      ],
      "stateMutability": "view",
      "type": "function"
    },
    {
      "inputs": [],
      "name": "getCampaigns",
      "outputs": [
        {
          "components": [
            {
              "internalType": "address payable",
              "name": "owner",
              "type": "address"
            },
            {
              "internalType": "string",
              "name": "title",
              "type": "string"
            },
            {
              "internalType": "string",
              "name": "description",
              "type": "string"
            },
            {
              "internalType": "uint256",
              "name": "target",
              "type": "uint256"
            },
            {
              "internalType": "uint256",
              "name": "deadline",
              "type": "uint256"
            },
            {
              "internalType": "uint256",
              "name": "amountCollected",
              "type": "uint256"
            },
            {
              "internalType": "string",
              "name": "image",
              "type": "string"
            },
            {
              "internalType": "address[]",
              "name": "donators",
              "type": "address[]"
            },
            {
              "internalType": "uint256[]",
              "name": "donations",
              "type": "uint256[]"
            },
            {
              "internalType": "bool",
              "name": "claimed",
              "type": "bool"
            },
            {
              "internalType": "enum CrowdFunding.CampaignState",
              "name": "state",
              "type": "uint8"
            }
          ],
          "internalType": "struct CrowdFunding.Campaign[]",
          "name": "",
          "type": "tuple[]"
        }
      ],
      "stateMutability": "view",
      "type": "function"
    },
    {
      "inputs": [
        {
          "internalType": "uint256",
          "name": "_id",
          "type": "uint256"
        }
      ],
      "name": "getDonators",
      "outputs": [
        {
          "internalType": "address[]",
          "name": "",
          "type": "address[]"
        },
        {
          "internalType": "uint256[]",
          "name": "",
          "type": "uint256[]"
        }
      ],
      "stateMutability": "view",
      "type": "function"
    },
    {
      "inputs": [],
      "name": "numberOfCampaigns",
      "outputs": [
        {
          "internalType": "uint256",
          "name": "",
          "type": "uint256"
        }
      ],
      "stateMutability": "view",
      "type": "function"
    },
    {
      "inputs": [
        {
          "internalType": "uint256",
          "name": "",
          "type": "uint256"
        },
        {
          "internalType": "address",
          "name": "",
          "type": "address"
        }
      ],
      "name": "refundClaimed",
      "outputs": [
        {
          "internalType": "bool",
          "name": "",
          "type": "bool"
        }
      ],
      "stateMutability": "view",
      "type": "function"
    },
    {
      "inputs": [
        {
          "internalType": "uint256",
          "name": "_id",
          "type": "uint256"
        }
      ],
      "name": "updateCampaignState",
      "outputs": [],
      "stateMutability": "nonpayable",
      "type": "function"
    }
  ],
  "bytecode": "0x6080604052600060045534801561001557600080fd5b506121a0806100256000396000f3fe6080604052600436106100e85760003560e01c80635598f8cc1161008a5780639943e3a1116100595780639943e3a1146102cb578063a49c9671146102eb578063a6b0363314610300578063bf4447731461032257600080fd5b80635598f8cc146102135780635b7baf64146102405780637d8022c0146102605780638a7fed6e146102ab57600080fd5b8063141961bc116100c6578063141961bc146101715780631b55e338146101a657806329c56eb9146101c857806342a4fda81461020057600080fd5b80630735c681146100ed57806307ca140d1461012d5780630fa91fa914610143575b600080fd5b3480156100f957600080fd5b5061011a610108366004611a09565b60036020526000908152604090205481565b6040519081526020015b60405180910390f35b34801561013957600080fd5b5061011a60045481565b34801561014f57600080fd5b5061016361015e366004611a2b565b610358565b604051610124929190611a44565b34801561017d57600080fd5b5061019161018c366004611a2b565b610452565b60405161012499989796959493929190611b46565b3480156101b257600080fd5b506101c66101c1366004611a2b565b610641565b005b3480156101d457600080fd5b5061011a6101e3366004611bcc565b600160209081526000928352604080842090915290825290205481565b6101c661020e366004611a2b565b6109bf565b34801561021f57600080fd5b5061023361022e366004611a2b565b610c43565b6040516101249190611d53565b34801561024c57600080fd5b506101c661025b366004611a2b565b610f71565b34801561026c57600080fd5b5061029b61027b366004611bcc565b600260209081526000928352604080842090915290825290205460ff1681565b6040519015158152602001610124565b3480156102b757600080fd5b506101c66102c6366004611a2b565b61129f565b3480156102d757600080fd5b5061011a6102e6366004611e09565b61139f565b3480156102f757600080fd5b5061011a600381565b34801561030c57600080fd5b506103156115de565b6040516101249190611eb4565b34801561032e57600080fd5b5061011a61033d366004611a09565b6001600160a01b031660009081526003602052604090205490565b6060808260045481106103865760405162461bcd60e51b815260040161037d90611f16565b60405180910390fd5b6000848152602081815260409182902060078101805484518185028101850190955280855290936008909201928491908301828280156103ef57602002820191906000526020600020905b81546001600160a01b031681526001909101906020018083116103d1575b505050505091508080548060200260200160405190810160405280929190818152602001828054801561044157602002820191906000526020600020905b81548152602001906001019080831161042d575b505050505090509250925050915091565b600060208190529081526040902080546001820180546001600160a01b03909216929161047e90611f4d565b80601f01602080910402602001604051908101604052809291908181526020018280546104aa90611f4d565b80156104f75780601f106104cc576101008083540402835291602001916104f7565b820191906000526020600020905b8154815290600101906020018083116104da57829003601f168201915b50505050509080600201805461050c90611f4d565b80601f016020809104026020016040519081016040528092919081815260200182805461053890611f4d565b80156105855780601f1061055a57610100808354040283529160200191610585565b820191906000526020600020905b81548152906001019060200180831161056857829003601f168201915b5050505050908060030154908060040154908060050154908060060180546105ac90611f4d565b80601f01602080910402602001604051908101604052809291908181526020018280546105d890611f4d565b80156106255780601f106105fa57610100808354040283529160200191610625565b820191906000526020600020905b81548152906001019060200180831161060857829003601f168201915b5050506009909301549192505060ff8082169161010090041689565b8060045481106106635760405162461bcd60e51b815260040161037d90611f16565b60008281526020819052604090205482906001600160a01b031633146106df5760405162461bcd60e51b815260206004820152602b60248201527f4f6e6c792063616d706169676e206f776e65722063616e20706572666f726d2060448201526a3a3434b99030b1ba34b7b760a91b606482015260840161037d565b6000838152602081905260409020600981015460ff16156107425760405162461bcd60e51b815260206004820152601f60248201527f46756e6473206861766520616c7265616479206265656e20636c61696d656400604482015260640161037d565b60016009820154610100900460ff16600281111561076257610762611b0e565b14806107805750806004015442118015610780575060008160050154115b6107c55760405162461bcd60e51b815260206004820152601660248201527510d85b9b9bdd0818db185a5b48199d5b991cc81e595d60521b604482015260640161037d565b8060040154421180156107df575080600301548160050154105b156108b45760098101805461ff00191661020017905580546001600160a01b0316600090815260036020526040812080549161081a83611f97565b91905055508360008051602061214b833981519152600260405161083e9190611fae565b60405180910390a260405162461bcd60e51b815260206004820152603960248201527f43616d706169676e206661696c656420746f207265616368207461726765742c60448201527f20646f6e6f72732063616e20636c61696d20726566756e647300000000000000606482015260840161037d565b600581015460098201805460ff1916600117905581546040516000916001600160a01b03169083908381818185875af1925050503d8060008114610914576040519150601f19603f3d011682016040523d82523d6000602084013e610919565b606091505b50509050806109745760405162461bcd60e51b815260206004820152602160248201527f5472616e7366657220746f2063616d706169676e206f776e6572206661696c656044820152601960fa1b606482015260840161037d565b82546040518381526001600160a01b039091169087907fa4eb50103b0591feb0bc913f479d92af5eb7ea33e8c397b49bab52ce6af26cb59060200160405180910390a3505050505050565b8060045481106109e15760405162461bcd60e51b815260040161037d90611f16565b6000828152602081905260408120906009820154610100900460ff166002811115610a0e57610a0e611b0e565b14610a5b5760405162461bcd60e51b815260206004820152601c60248201527f43616d706169676e206973206e6f206c6f6e6765722061637469766500000000604482015260640161037d565b80600401544210610aae5760405162461bcd60e51b815260206004820152601c60248201527f43616d706169676e20646561646c696e65206861732070617373656400000000604482015260640161037d565b60003411610b0d5760405162461bcd60e51b815260206004820152602660248201527f446f6e6174696f6e20616d6f756e74206d75737420626520677265617465722060448201526507468616e20360d41b606482015260840161037d565b600781018054600181810183556000928352602080842090920180546001600160a01b03191633908117909155600885018054808401825590855283852034910181905587855291835260408085209185529252908220805491929091610b75908490611fc2565b9250508190555034816005016000828254610b909190611fc2565b90915550506003810154600582015410610c075760098101805461ff00191661010017905580546001600160a01b03166000908152600360205260408120805491610bda83611f97565b91905055508260008051602061214b8339815191526001604051610bfe9190611fae565b60405180910390a25b604051348152339084907f0b5b4c52969ff7329ecf7ee536409fda87812b15a8622bc6e8cdeab3aee14a269060200160405180910390a3505050565b610c4b611978565b816004548110610c6d5760405162461bcd60e51b815260040161037d90611f16565b600083815260208181526040918290208251610160810190935280546001600160a01b031683526001810180549192840191610ca890611f4d565b80601f0160208091040260200160405190810160405280929190818152602001828054610cd490611f4d565b8015610d215780601f10610cf657610100808354040283529160200191610d21565b820191906000526020600020905b815481529060010190602001808311610d0457829003601f168201915b50505050508152602001600282018054610d3a90611f4d565b80601f0160208091040260200160405190810160405280929190818152602001828054610d6690611f4d565b8015610db35780601f10610d8857610100808354040283529160200191610db3565b820191906000526020600020905b815481529060010190602001808311610d9657829003601f168201915b50505050508152602001600382015481526020016004820154815260200160058201548152602001600682018054610dea90611f4d565b80601f0160208091040260200160405190810160405280929190818152602001828054610e1690611f4d565b8015610e635780601f10610e3857610100808354040283529160200191610e63565b820191906000526020600020905b815481529060010190602001808311610e4657829003601f168201915b5050505050815260200160078201805480602002602001604051908101604052809291908181526020018280548015610ec557602002820191906000526020600020905b81546001600160a01b03168152600190910190602001808311610ea7575b5050505050815260200160088201805480602002602001604051908101604052809291908181526020018280548015610f1d57602002820191906000526020600020905b815481526020019060010190808311610f09575b5050509183525050600982015460ff80821615156020840152604090920191610100909104166002811115610f5457610f54611b0e565b6002811115610f6557610f65611b0e565b90525091505b50919050565b806004548110610f935760405162461bcd60e51b815260040161037d90611f16565b6000828152600160209081526040808320338452909152902054806110085760405162461bcd60e51b815260206004820152602560248201527f596f752068617665206e6f7420646f6e6174656420746f20746869732063616d6044820152643830b4b3b760d91b606482015260840161037d565b600083815260026020908152604080832033845290915290205460ff161561106b5760405162461bcd60e51b81526020600482015260166024820152751499599d5b9908185b1c9958591e4818db185a5b595960521b604482015260640161037d565b6000838152602081905260409020600481015442118015611093575080600301548160050154105b6110f35760405162461bcd60e51b815260206004820152602b60248201527f526566756e6473206f6e6c7920617661696c61626c6520666f72206661696c6560448201526a642063616d706169676e7360a81b606482015260840161037d565b60026009820154610100900460ff16600281111561111357611113611b0e565b1461117b5760098101805461ff00191661020017905580546001600160a01b0316600090815260036020526040812080549161114e83611f97565b91905055508360008051602061214b83398151915260026040516111729190611fae565b60405180910390a25b600084815260026020908152604080832033808552908352818420805460ff19166001908117909155888552835281842090845290915281208190556005820180548492906111cb908490611fd5565b9091555050604051600090339084908381818185875af1925050503d8060008114611212576040519150601f19603f3d011682016040523d82523d6000602084013e611217565b606091505b50509050806112615760405162461bcd60e51b81526020600482015260166024820152751499599d5b99081d1c985b9cd9995c8819985a5b195960521b604482015260640161037d565b604051838152339086907f7a482fdeb6bc9a1376f597068a214a7a39472bb2eff1b8cad21ba04f49ddca1b9060200160405180910390a35050505050565b8060045481106112c15760405162461bcd60e51b815260040161037d90611f16565b6000828152602081905260408120906009820154610100900460ff1660028111156112ee576112ee611b0e565b146112f857505050565b806004015442111561139a5780600301548160050154106113295760098101805461ff00191661010017905561133b565b60098101805461ff0019166102001790555b80546001600160a01b0316600090815260036020526040812080549161136083611f97565b90915550506009810154604051849160008051602061214b8339815191529161139191610100900460ff1690611fae565b60405180910390a25b505050565b6001600160a01b0386166000908152600360208190526040822054106114235760405162461bcd60e51b815260206004820152603360248201527f5573657220616c726561647920686173206d6178696d756d206e756d626572206044820152726f66206163746976652063616d706169676e7360681b606482015260840161037d565b4283116114875760405162461bcd60e51b815260206004820152602c60248201527f54686520646561646c696e652073686f756c642062652061206461746520696e60448201526b103a343290333aba3ab9329760a11b606482015260840161037d565b6001600160a01b0387166114d55760405162461bcd60e51b8152602060048201526015602482015274496e76616c6964206f776e6572206164647265737360581b604482015260640161037d565b600454600081815260208190526040902080546001600160a01b0319166001600160a01b038a161781556001810161150d8982612036565b506002810161151c8882612036565b50600381018690556004810185905560006005820155600681016115408582612036565b5060098101805461ffff191690556001600160a01b0389166000908152600360205260408120805491611572836120f6565b909155505060048054906000611587836120f6565b9190505550886001600160a01b0316827fdc26653af5b99b2da33e2ad69ee6600d9aeccc82b034501db4338309615ca2388a89896040516115ca9392919061210f565b60405180910390a350979650505050505050565b6060600060045467ffffffffffffffff8111156115fd576115fd611d66565b60405190808252806020026020018201604052801561163657816020015b611623611978565b81526020019060019003908161161b5790505b50905060005b600454811015610f6b57600081815260208181526040918290208251610160810190935280546001600160a01b031683526001810180549193928492908401919061168690611f4d565b80601f01602080910402602001604051908101604052809291908181526020018280546116b290611f4d565b80156116ff5780601f106116d4576101008083540402835291602001916116ff565b820191906000526020600020905b8154815290600101906020018083116116e257829003601f168201915b5050505050815260200160028201805461171890611f4d565b80601f016020809104026020016040519081016040528092919081815260200182805461174490611f4d565b80156117915780601f1061176657610100808354040283529160200191611791565b820191906000526020600020905b81548152906001019060200180831161177457829003601f168201915b505050505081526020016003820154815260200160048201548152602001600582015481526020016006820180546117c890611f4d565b80601f01602080910402602001604051908101604052809291908181526020018280546117f490611f4d565b80156118415780601f1061181657610100808354040283529160200191611841565b820191906000526020600020905b81548152906001019060200180831161182457829003601f168201915b50505050508152602001600782018054806020026020016040519081016040528092919081815260200182805480156118a357602002820191906000526020600020905b81546001600160a01b03168152600190910190602001808311611885575b50505050508152602001600882018054806020026020016040519081016040528092919081815260200182805480156118fb57602002820191906000526020600020905b8154815260200190600101908083116118e7575b5050509183525050600982015460ff8082161515602084015260409092019161010090910416600281111561193257611932611b0e565b600281111561194357611943611b0e565b8152505083838151811061195957611959612134565b6020026020010181905250508080611970906120f6565b91505061163c565b60405180610160016040528060006001600160a01b031681526020016060815260200160608152602001600081526020016000815260200160008152602001606081526020016060815260200160608152602001600015158152602001600060028111156119e8576119e8611b0e565b905290565b80356001600160a01b0381168114611a0457600080fd5b919050565b600060208284031215611a1b57600080fd5b611a24826119ed565b9392505050565b600060208284031215611a3d57600080fd5b5035919050565b604080825283519082018190526000906020906060840190828701845b82811015611a865781516001600160a01b031684529284019290840190600101611a61565b5050508381038285015284518082528583019183019060005b81811015611abb57835183529284019291840191600101611a9f565b5090979650505050505050565b6000815180845260005b81811015611aee57602081850181015186830182015201611ad2565b506000602082860101526020601f19601f83011685010191505092915050565b634e487b7160e01b600052602160045260246000fd5b60038110611b4257634e487b7160e01b600052602160045260246000fd5b9052565b6001600160a01b038a16815261012060208201819052600090611b6b8382018c611ac8565b90508281036040840152611b7f818b611ac8565b90508860608401528760808401528660a084015282810360c0840152611ba58187611ac8565b91505083151560e0830152611bbe610100830184611b24565b9a9950505050505050505050565b60008060408385031215611bdf57600080fd5b82359150611bef602084016119ed565b90509250929050565b600081518084526020808501945080840160005b83811015611c315781516001600160a01b031687529582019590820190600101611c0c565b509495945050505050565b600081518084526020808501945080840160005b83811015611c3157815187529582019590820190600101611c50565b80516001600160a01b0316825260006101606020830151816020860152611c9582860182611ac8565b91505060408301518482036040860152611caf8282611ac8565b915050606083015160608501526080830151608085015260a083015160a085015260c083015184820360c0860152611ce78282611ac8565b91505060e083015184820360e0860152611d018282611bf8565b9150506101008084015185830382870152611d1c8382611c3c565b9250505061012080840151611d348287018215159052565b505061014080840151611d4982870182611b24565b5090949350505050565b602081526000611a246020830184611c6c565b634e487b7160e01b600052604160045260246000fd5b600082601f830112611d8d57600080fd5b813567ffffffffffffffff80821115611da857611da8611d66565b604051601f8301601f19908116603f01168101908282118183101715611dd057611dd0611d66565b81604052838152866020858801011115611de957600080fd5b836020870160208301376000602085830101528094505050505092915050565b60008060008060008060c08789031215611e2257600080fd5b611e2b876119ed565b9550602087013567ffffffffffffffff80821115611e4857600080fd5b611e548a838b01611d7c565b96506040890135915080821115611e6a57600080fd5b611e768a838b01611d7c565b9550606089013594506080890135935060a0890135915080821115611e9a57600080fd5b50611ea789828a01611d7c565b9150509295509295509295565b6000602080830181845280855180835260408601915060408160051b870101925083870160005b82811015611f0957603f19888603018452611ef7858351611c6c565b94509285019290850190600101611edb565b5092979650505050505050565b60208082526017908201527f43616d706169676e20646f6573206e6f74206578697374000000000000000000604082015260600190565b600181811c90821680611f6157607f821691505b602082108103610f6b57634e487b7160e01b600052602260045260246000fd5b634e487b7160e01b600052601160045260246000fd5b600081611fa657611fa6611f81565b506000190190565b60208101611fbc8284611b24565b92915050565b80820180821115611fbc57611fbc611f81565b81810381811115611fbc57611fbc611f81565b601f82111561139a57600081815260208120601f850160051c8101602086101561200f5750805b601f850160051c820191505b8181101561202e5782815560010161201b565b505050505050565b815167ffffffffffffffff81111561205057612050611d66565b6120648161205e8454611f4d565b84611fe8565b602080601f83116001811461209957600084156120815750858301515b600019600386901b1c1916600185901b17855561202e565b600085815260208120601f198616915b828110156120c8578886015182559484019460019091019084016120a9565b50858210156120e65787850151600019600388901b60f8161c191681555b5050505050600190811b01905550565b60006001820161210857612108611f81565b5060010190565b6060815260006121226060830186611ac8565b60208301949094525060400152919050565b634e487b7160e01b600052603260045260246000fdfe7c387a42b7678e1b26d65927d4a0176444d9c6509a72583dee248753b768db41a264697066735822122006114f364109832b0389b61d9ed3c46cad663271ae9f329be6928dec731ea86f64736f6c63430008140033",
  "linkReferences": {},
  "deployedLinkReferences": {}
}